{
  "contractName": "StartUpDapp",
  "abi": [
    {
      "anonymous": false,
      "inputs": [
        {
          "indexed": false,
          "internalType": "address",
          "name": "owner",
          "type": "address"
        },
        {
          "indexed": false,
          "internalType": "uint256",
          "name": "startupId",
          "type": "uint256"
        },
        {
          "indexed": false,
          "internalType": "string",
          "name": "startupDescription",
          "type": "string"
        },
        {
          "indexed": false,
          "internalType": "uint256",
          "name": "startupAmount",
          "type": "uint256"
        },
        {
          "indexed": false,
          "internalType": "bool",
          "name": "isActive",
          "type": "bool"
        }
      ],
      "name": "StartupFunded",
      "type": "event"
    },
    {
      "anonymous": false,
      "inputs": [
        {
          "indexed": false,
          "internalType": "address",
          "name": "owner",
          "type": "address"
        },
        {
          "indexed": false,
          "internalType": "uint256",
          "name": "startupId",
          "type": "uint256"
        },
        {
          "indexed": false,
          "internalType": "string",
          "name": "startupDescription",
          "type": "string"
        },
        {
          "indexed": false,
          "internalType": "uint256",
          "name": "startupAmount",
          "type": "uint256"
        },
        {
          "indexed": false,
          "internalType": "bool",
          "name": "isActive",
          "type": "bool"
        }
      ],
      "name": "StartupRequested",
      "type": "event"
    },
    {
      "inputs": [],
      "name": "owner",
      "outputs": [
        {
          "internalType": "address",
          "name": "",
          "type": "address"
        }
      ],
      "stateMutability": "view",
      "type": "function",
      "constant": true
    },
    {
      "inputs": [],
      "name": "startupCount",
      "outputs": [
        {
          "internalType": "uint256",
          "name": "",
          "type": "uint256"
        }
      ],
      "stateMutability": "view",
      "type": "function",
      "constant": true
    },
    {
      "inputs": [
        {
          "internalType": "uint256",
          "name": "",
          "type": "uint256"
        }
      ],
      "name": "startups",
      "outputs": [
        {
          "internalType": "address",
          "name": "owner",
          "type": "address"
        },
        {
          "internalType": "uint256",
          "name": "startupId",
          "type": "uint256"
        },
        {
          "internalType": "string",
          "name": "startupDescription",
          "type": "string"
        },
        {
          "internalType": "uint256",
          "name": "startupAmount",
          "type": "uint256"
        },
        {
          "internalType": "bool",
          "name": "isActive",
          "type": "bool"
        }
      ],
      "stateMutability": "view",
      "type": "function",
      "constant": true
    },
    {
      "inputs": [
        {
          "internalType": "string",
          "name": "_startupDescription",
          "type": "string"
        },
        {
          "internalType": "uint256",
          "name": "_startupAmount",
          "type": "uint256"
        }
      ],
      "name": "requestFunding",
      "outputs": [],
      "stateMutability": "nonpayable",
      "type": "function"
    },
    {
      "inputs": [
        {
          "internalType": "uint256",
          "name": "_startupId",
          "type": "uint256"
        }
      ],
      "name": "fundStartup",
      "outputs": [],
      "stateMutability": "payable",
      "type": "function",
      "payable": true
    }
  ],
  "bytecode": "0x6080604052336000806101000a81548173ffffffffffffffffffffffffffffffffffffffff021916908373ffffffffffffffffffffffffffffffffffffffff160217905550600060015534801561005557600080fd5b50610c05806100656000396000f3fe60806040526004361061004a5760003560e01c806325ce75861461004f5780633dc703821461007a578063849591c6146100965780638da5cb5b146100bf578063d91db9a0146100ea575b600080fd5b34801561005b57600080fd5b5061006461012b565b6040516100719190610773565b60405180910390f35b610094600480360381019061008f91906107ce565b610131565b005b3480156100a257600080fd5b506100bd60048036038101906100b89190610941565b61043d565b005b3480156100cb57600080fd5b506100d46105a8565b6040516100e191906109de565b60405180910390f35b3480156100f657600080fd5b50610111600480360381019061010c91906107ce565b6105cc565b604051610122959493929190610a9c565b60405180910390f35b60015481565b6000600260008381526020019081526020016000206040518060a00160405290816000820160009054906101000a900473ffffffffffffffffffffffffffffffffffffffff1673ffffffffffffffffffffffffffffffffffffffff1673ffffffffffffffffffffffffffffffffffffffff168152602001600182015481526020016002820180546101c190610b25565b80601f01602080910402602001604051908101604052809291908181526020018280546101ed90610b25565b801561023a5780601f1061020f5761010080835404028352916020019161023a565b820191906000526020600020905b81548152906001019060200180831161021d57829003601f168201915b50505050508152602001600382015481526020016004820160009054906101000a900460ff161515151581525050905060008160000151905060008311801561028557506001548311155b61028e57600080fd5b816060015134101561029f57600080fd5b8160800151156102ae57600080fd5b8073ffffffffffffffffffffffffffffffffffffffff163373ffffffffffffffffffffffffffffffffffffffff1614156102e757600080fd5b6001826080019015159081151581525050816002600085815260200190815260200160002060008201518160000160006101000a81548173ffffffffffffffffffffffffffffffffffffffff021916908373ffffffffffffffffffffffffffffffffffffffff1602179055506020820151816001015560408201518160020190805190602001906103799291906106b7565b506060820151816003015560808201518160040160006101000a81548160ff0219169083151502179055509050508073ffffffffffffffffffffffffffffffffffffffff166108fc349081150290604051600060405180830381858888f193505050501580156103ed573d6000803e3d6000fd5b507fa2b3176096dc83aaf51f089fb0bd73951715d70efc540cbf66e4ad70f388e6c133600154846040015185606001516001604051610430959493929190610a9c565b60405180910390a1505050565b600082511161044b57600080fd5b6000811161045857600080fd5b6001600081548092919061046b90610b86565b91905055506040518060a001604052803373ffffffffffffffffffffffffffffffffffffffff16815260200160015481526020018381526020018281526020016000151581525060026000600154815260200190815260200160002060008201518160000160006101000a81548173ffffffffffffffffffffffffffffffffffffffff021916908373ffffffffffffffffffffffffffffffffffffffff1602179055506020820151816001015560408201518160020190805190602001906105349291906106b7565b506060820151816003015560808201518160040160006101000a81548160ff0219169083151502179055509050507f3ea119ee3dbc6627c0beeed4546a51ea7c70f51617c844619d92fff9fed7748b336001548484600060405161059c959493929190610a9c565b60405180910390a15050565b60008054906101000a900473ffffffffffffffffffffffffffffffffffffffff1681565b60026020528060005260406000206000915090508060000160009054906101000a900473ffffffffffffffffffffffffffffffffffffffff169080600101549080600201805461061b90610b25565b80601f016020809104026020016040519081016040528092919081815260200182805461064790610b25565b80156106945780601f1061066957610100808354040283529160200191610694565b820191906000526020600020905b81548152906001019060200180831161067757829003601f168201915b5050505050908060030154908060040160009054906101000a900460ff16905085565b8280546106c390610b25565b90600052602060002090601f0160209004810192826106e5576000855561072c565b82601f106106fe57805160ff191683800117855561072c565b8280016001018555821561072c579182015b8281111561072b578251825591602001919060010190610710565b5b509050610739919061073d565b5090565b5b8082111561075657600081600090555060010161073e565b5090565b6000819050919050565b61076d8161075a565b82525050565b60006020820190506107886000830184610764565b92915050565b6000604051905090565b600080fd5b600080fd5b6107ab8161075a565b81146107b657600080fd5b50565b6000813590506107c8816107a2565b92915050565b6000602082840312156107e4576107e3610798565b5b60006107f2848285016107b9565b91505092915050565b600080fd5b600080fd5b6000601f19601f8301169050919050565b7f4e487b7100000000000000000000000000000000000000000000000000000000600052604160045260246000fd5b61084e82610805565b810181811067ffffffffffffffff8211171561086d5761086c610816565b5b80604052505050565b600061088061078e565b905061088c8282610845565b919050565b600067ffffffffffffffff8211156108ac576108ab610816565b5b6108b582610805565b9050602081019050919050565b82818337600083830152505050565b60006108e46108df84610891565b610876565b905082815260208101848484011115610900576108ff610800565b5b61090b8482856108c2565b509392505050565b600082601f830112610928576109276107fb565b5b81356109388482602086016108d1565b91505092915050565b6000806040838503121561095857610957610798565b5b600083013567ffffffffffffffff8111156109765761097561079d565b5b61098285828601610913565b9250506020610993858286016107b9565b9150509250929050565b600073ffffffffffffffffffffffffffffffffffffffff82169050919050565b60006109c88261099d565b9050919050565b6109d8816109bd565b82525050565b60006020820190506109f360008301846109cf565b92915050565b600081519050919050565b600082825260208201905092915050565b60005b83811015610a33578082015181840152602081019050610a18565b83811115610a42576000848401525b50505050565b6000610a53826109f9565b610a5d8185610a04565b9350610a6d818560208601610a15565b610a7681610805565b840191505092915050565b60008115159050919050565b610a9681610a81565b82525050565b600060a082019050610ab160008301886109cf565b610abe6020830187610764565b8181036040830152610ad08186610a48565b9050610adf6060830185610764565b610aec6080830184610a8d565b9695505050505050565b7f4e487b7100000000000000000000000000000000000000000000000000000000600052602260045260246000fd5b60006002820490506001821680610b3d57607f821691505b60208210811415610b5157610b50610af6565b5b50919050565b7f4e487b7100000000000000000000000000000000000000000000000000000000600052601160045260246000fd5b6000610b918261075a565b91507fffffffffffffffffffffffffffffffffffffffffffffffffffffffffffffffff821415610bc457610bc3610b57565b5b60018201905091905056fea2646970667358221220144f22e062a97473e6e4d6c69f42430a46c3e56a2910ab25e7af189e0c611b0064736f6c634300080a0033",
  "immutableReferences": {},
  "source": "// SPDX-License-Identifier: MIT\npragma solidity ^ 0.8.10;\n\ncontract StartUpDapp {\n  address public owner = msg.sender;\n  uint256 public startupCount = 0;\n  mapping(uint256 => Startup) public startups;\n\n  struct Startup { // the startup attributes\n    address owner; // the owner of the startup\n    uint256 startupId; // unique id for each startup\n    string startupDescription; // The Description of the Startup\n    uint256 startupAmount; //Startup amount requested\n    bool isActive; // is the startup active?\n  }\n  \n  event StartupRequested(\n    address owner, \n    uint256 startupId, \n    string startupDescription, \n    uint256 startupAmount, \n    bool isActive\n    );\n\n  event StartupFunded(\n    address owner, \n    uint256 startupId, \n    string startupDescription, \n    uint256 startupAmount, \n    bool isActive\n    );\n\n\n  //1. Owner requests a startup\n  function requestFunding(string memory _startupDescription, uint256 _startupAmount) public {\n    //Require a valid description\n    require(bytes(_startupDescription).length > 0);\n    //require a valid startup amount\n    require(_startupAmount > 0);\n    //increment startup count\n    startupCount++;\n    //create the startup\n    startups[startupCount] = Startup(msg.sender, startupCount, _startupDescription, _startupAmount, false);\n    //trigger an evant\n    emit StartupRequested(msg.sender, startupCount, _startupDescription, _startupAmount, false);\n  }\n  //2. Funder accepts startup fund request\n  function fundStartup(uint _startupId) public payable {\n    //Get the startup\n    Startup memory _startup = startups[_startupId];\n    //Fetch the owner\n    address _owner = _startup.owner;\n    //Require the startup has a valid id\n    require(_startupId > 0 && _startupId <= startupCount);\n    //Require that there is enough ether to fund the startup\n    require(msg.value >= _startup.startupAmount);\n    //Require that the startup has not been funded already\n    require(!_startup.isActive);\n    //Require that the funder is not the owner\n    require(msg.sender != _owner);\n    //Mark as funded and active\n    _startup.isActive = true;\n    //Update the startup\n    startups[_startupId] = _startup;\n    //Pay the owner by sending the startup amount requested\n    payable(_owner).transfer(msg.value);\n    //Trigger an event  \n    emit StartupFunded(msg.sender, startupCount, _startup.startupDescription, _startup.startupAmount, true);\n  }\n    \n  \n}\n\n\n",
  "sourcePath": "/Users/hayleealyssalyn.anderson/Desktop/SmartContractDemo/Loans/src/contracts/StartUpDapp.sol",
  "compiler": {
    "name": "solc",
    "version": "0.8.10+commit.fc410830.Emscripten.clang"
  },
  "schemaVersion": "3.4.3",
  "updatedAt": "2022-03-17T15:35:32.063Z",
  "networkType": "ethereum",
  "devdoc": {
    "kind": "dev",
    "methods": {},
    "version": 1
  },
  "userdoc": {
    "kind": "user",
    "methods": {},
    "version": 1
  }
}